{
  "contractName": "UserStorage",
  "abi": [
    {
      "inputs": [
        {
          "internalType": "string",
          "name": "",
          "type": "string"
        }
      ],
      "name": "users",
      "outputs": [
        {
          "internalType": "address",
          "name": "userAddress",
          "type": "address"
        },
        {
          "internalType": "string",
          "name": "userPublicKey",
          "type": "string"
        },
        {
          "internalType": "bool",
          "name": "set",
          "type": "bool"
        }
      ],
      "stateMutability": "view",
      "type": "function",
      "constant": true
    },
    {
      "inputs": [
        {
          "internalType": "address",
          "name": "_userAddress",
          "type": "address"
        },
        {
          "internalType": "string",
          "name": "_username",
          "type": "string"
        },
        {
          "internalType": "string",
          "name": "_userPublicKey",
          "type": "string"
        }
      ],
      "name": "createUser",
      "outputs": [],
      "stateMutability": "nonpayable",
      "type": "function"
    }
  ],
  "bytecode": "0x608060405234801561001057600080fd5b50610980806100206000396000f3fe608060405234801561001057600080fd5b50600436106100365760003560e01c80634ceb48fd1461003b578063689e1c0314610057575b600080fd5b6100556004803603810190610050919061044b565b610089565b005b610071600480360381019061006c91906104d6565b61019e565b604051610080939291906105d1565b60405180910390f35b6000808360405161009a919061064b565b908152602001604051809103902090508060020160009054906101000a900460ff16156100c657600080fd5b60405180606001604052808573ffffffffffffffffffffffffffffffffffffffff1681526020018381526020016001151581525060008460405161010a919061064b565b908152602001604051809103902060008201518160000160006101000a81548173ffffffffffffffffffffffffffffffffffffffff021916908373ffffffffffffffffffffffffffffffffffffffff16021790555060208201518160010190816101749190610878565b5060408201518160020160006101000a81548160ff02191690831515021790555090505050505050565b6000818051602081018201805184825260208301602085012081835280955050505050506000915090508060000160009054906101000a900473ffffffffffffffffffffffffffffffffffffffff16908060010180546101fd90610691565b80601f016020809104026020016040519081016040528092919081815260200182805461022990610691565b80156102765780601f1061024b57610100808354040283529160200191610276565b820191906000526020600020905b81548152906001019060200180831161025957829003601f168201915b5050505050908060020160009054906101000a900460ff16905083565b6000604051905090565b600080fd5b600080fd5b600073ffffffffffffffffffffffffffffffffffffffff82169050919050565b60006102d2826102a7565b9050919050565b6102e2816102c7565b81146102ed57600080fd5b50565b6000813590506102ff816102d9565b92915050565b600080fd5b600080fd5b6000601f19601f8301169050919050565b7f4e487b7100000000000000000000000000000000000000000000000000000000600052604160045260246000fd5b6103588261030f565b810181811067ffffffffffffffff8211171561037757610376610320565b5b80604052505050565b600061038a610293565b9050610396828261034f565b919050565b600067ffffffffffffffff8211156103b6576103b5610320565b5b6103bf8261030f565b9050602081019050919050565b82818337600083830152505050565b60006103ee6103e98461039b565b610380565b90508281526020810184848401111561040a5761040961030a565b5b6104158482856103cc565b509392505050565b600082601f83011261043257610431610305565b5b81356104428482602086016103db565b91505092915050565b6000806000606084860312156104645761046361029d565b5b6000610472868287016102f0565b935050602084013567ffffffffffffffff811115610493576104926102a2565b5b61049f8682870161041d565b925050604084013567ffffffffffffffff8111156104c0576104bf6102a2565b5b6104cc8682870161041d565b9150509250925092565b6000602082840312156104ec576104eb61029d565b5b600082013567ffffffffffffffff81111561050a576105096102a2565b5b6105168482850161041d565b91505092915050565b610528816102c7565b82525050565b600081519050919050565b600082825260208201905092915050565b60005b8381101561056857808201518184015260208101905061054d565b83811115610577576000848401525b50505050565b60006105888261052e565b6105928185610539565b93506105a281856020860161054a565b6105ab8161030f565b840191505092915050565b60008115159050919050565b6105cb816105b6565b82525050565b60006060820190506105e6600083018661051f565b81810360208301526105f8818561057d565b905061060760408301846105c2565b949350505050565b600081905092915050565b60006106258261052e565b61062f818561060f565b935061063f81856020860161054a565b80840191505092915050565b6000610657828461061a565b915081905092915050565b7f4e487b7100000000000000000000000000000000000000000000000000000000600052602260045260246000fd5b600060028204905060018216806106a957607f821691505b6020821081036106bc576106bb610662565b5b50919050565b60008190508160005260206000209050919050565b60006020601f8301049050919050565b600082821b905092915050565b6000600883026107247fffffffffffffffffffffffffffffffffffffffffffffffffffffffffffffffff826106e7565b61072e86836106e7565b95508019841693508086168417925050509392505050565b6000819050919050565b6000819050919050565b600061077561077061076b84610746565b610750565b610746565b9050919050565b6000819050919050565b61078f8361075a565b6107a361079b8261077c565b8484546106f4565b825550505050565b600090565b6107b86107ab565b6107c3818484610786565b505050565b5b818110156107e7576107dc6000826107b0565b6001810190506107c9565b5050565b601f82111561082c576107fd816106c2565b610806846106d7565b81016020851015610815578190505b610829610821856106d7565b8301826107c8565b50505b505050565b600082821c905092915050565b600061084f60001984600802610831565b1980831691505092915050565b6000610868838361083e565b9150826002028217905092915050565b6108818261052e565b67ffffffffffffffff81111561089a57610899610320565b5b6108a48254610691565b6108af8282856107eb565b600060209050601f8311600181146108e257600084156108d0578287015190505b6108da858261085c565b865550610942565b601f1984166108f0866106c2565b60005b82811015610918578489015182556001820191506020850194506020810190506108f3565b868310156109355784890151610931601f89168261083e565b8355505b6001600288020188555050505b50505050505056fea264697066735822122088708349912277b0ea2893b292f273a1ecea4997b39cd675d78603926c0757ba64736f6c634300080f0033",
  "immutableReferences": {},
  "source": "// SPDX-License-Identifier: MIT\r\n\r\npragma solidity ^0.8.15;\r\ncontract UserStorage {\r\n\r\n   struct User {\r\n       address userAddress;\r\n       string userPublicKey;\r\n\r\n       bool set; // This boolean is used to differentiate between unset and zero struct values\r\n   }\r\n\r\n   mapping(string => User) public users;\r\n\r\n   function createUser(address _userAddress, string memory _username, string memory _userPublicKey) public {\r\n       User storage user = users[_username];\r\n\r\n       // Check that the user did not already exist:\r\n       require(!user.set);\r\n\r\n       //Store the user\r\n       users[_username] = User({\r\n           userAddress: _userAddress,\r\n           userPublicKey: _userPublicKey,\r\n           set: true\r\n       });\r\n   }\r\n\r\n}\r\n",
  "sourcePath": "C:\\Users\\User\\Desktop\\EncryptoToken\\UserStorage\\contracts\\UserStorage.sol",
  "compiler": {
    "name": "solc",
    "version": "0.8.15+commit.e14f2714.Emscripten.clang"
  },
  "schemaVersion": "3.4.8",
  "updatedAt": "2022-07-11T13:39:07.669Z",
  "networkType": "ethereum",
  "devdoc": {
    "kind": "dev",
    "methods": {},
    "version": 1
  },
  "userdoc": {
    "kind": "user",
    "methods": {},
    "version": 1
  }
}